:020000040800F2
:1000000070060020190200082102000823020008DF
:10001000250200082702000829020008000000004D
:100020000000000000000000000000002B0200089B
:100030002D020008000000002F0200083102000815
:1000400033020008330200083302000833020008BC
:1000500033020008330200083302000833020008AC
:10006000330200083302000833020008330200089C
:10007000330200083302000833020008330200088C
:1000800033020008330200083302000800000000B9
:100090000000000000000000000000003302000823
:1000A000330200083302000833020008330200085C
:1000B000330200083302000833020008330200084C
:1000C000330200083302000833020008330200083C
:1000D0003302000833020008330200080000000069
:1000E0003302000833020008330200080000000059
:1000F00000000000000000000000000033020008C3
:100100000000000033020008330200083302000838
:1001100000000000000000000000000000000000DF
:1001200033020008330200083302000833020008DB
:100130003302000800000000000000000000000082
:100140000000000000000000000000003302000872
:1001500033020008330200083302000833020008AB
:100160003302000833020008000000000000000015
:10017000000000000000000000000000000000007F
:100180000000000033020008000000000000000032
:100190003302000800F002F800F02EF80AA090E800
:1001A000000C82448344AAF10107DA4501D100F032
:1001B00023F8AFF2090EBAE80F0013F0010F18BFD1
:1001C000FB1A43F001031847240E0000340E000010
:1001D0000023002400250026103A28BF78C1FBD850
:1001E000520728BF30C148BF0B6070471FB500F0F1
:1001F000EFFE1FBD10B510BD00F031F81146FFF73E
:10020000F5FF00F077FA00F04FF803B4FFF7F2FFC4
:1002100003BC00F057F80000094880470948004730
:10022000FEE7FEE7FEE7FEE7FEE7FEE7FEE7FEE7A6
:10023000FEE7FEE704480549054A064B7047000003
:100240005D04000895010008700000207006002081
:10025000700200207002002070477047704775469A
:1002600000F02CF8AE4605006946534620F0070022
:10027000854618B020B5FFF7DDFFBDE820404FF000
:1002800000064FF000074FF000084FF0000BAC469F
:10029000ACE8C009ACE8C009ACE8C009ACE8C009EA
:1002A00021F007018D46704710B50446AFF300807A
:1002B0002046BDE81040FFF7A8BF00000048704787
:1002C0000000002001491820ABBEFEE72600020016
:1002D0007047000010B51D4A03211E4B106840F006
:1002E000010010601A480160516941F48071516148
:1002F00019681960002159605C6844F001045C6071
:10030000136943F400331361026A22F47F420262EC
:10031000026A42F4E0620262026A42F4E04202626D
:10032000026822F0F0020260026842F0A00202605D
:10033000094840F2836240F8042C0C2202604160BC
:100340008160016841F40051016010BD3038024005
:1003500000000240042001400C44004009480168AC
:1003600041F0010101604FF08040016841F0080157
:100370000160016841F080010160034843F67F613C
:10038000016070474038024028000040B0B5044684
:1003900000F03EF8144D2C60286840F4806028601E
:1003A000012000F005F9286840F6FF310840286078
:1003B000B0BD00BF10B5044600F02AF844F4007048
:1003C000094C2060206840F480602060002000F02C
:1003D000EFF8206840F6FF31084020600120BDE8BA
:1003E000104000F0E5B800BF1408024010B51948ED
:1003F0004FF05531054C01603820A0470120A0473F
:100400000E202146BDE81040084700BF8D030008BC
:10041000BCB5104C104840F6FF3520604FF480709A
:100420006061606940F480606061012000F0C0F8A4
:1004300020690190606928406061012000F0B8F8EF
:1004400001980006EDD4002060614FF05530206027
:10045000BCBD00BF000802400000555510B50E4855
:100460000F4CD0F8801041F47001C0F880100B4997
:100470000A6842F001020A6000228A600B68234089
:100480000B60084B4B600B6823F480230B60CA6041
:100490004FF00061016010BD08ED00E0003802403F
:1004A000FFFFF6FE10300024064801688906FCD5DF
:1004B0004068704703490A681206FCD5C0B248601C
:1004C000704700BF0044004082B037484EF6FF71CD
:1004D0004EF6FF324160016801916421009101995B
:1004E000914209D04EF6FF52914207D04EF6FF627C
:1004F000914205D1012102E0032100E00221009197
:100500004DF6FF714DF6FF3241600168019101998E
:10051000914209D04DF6FF52914207D04DF6FF624D
:10052000914205D1042102E0062100E0052100915D
:100530004BF6FF714BF6FF32416001680191019962
:10054000914209D04BF6FF52914207D04BF6FF6221
:10055000914205D1072102E0092100E00821009124
:1005600047F6FF71416047F6FF310068019001983E
:10057000884205D047F6FF51884203D1002000E0B1
:100580000A2000900098642803D1084800210160E7
:1005900004E0064801220168026009B1642000E01D
:1005A000009802B0704700BF100402406C000020A9
:1005B00081B000900098B8B10C480099C161002149
:1005C00041614FF080410A6842F001020A6001680F
:1005D000C907FCD0016821F0010101604FF08040A3
:1005E000016821F00101016001B070471000004076
:1005F0002DE9F04F89B0054601200C46FFF7C6FEF5
:100600000C20FFF7C3FE601B039500F0D0FB9FEDAD
:10061000300B04AE304FCDE901104FF00A0906F15E
:1006200010045BEC100B0090B86840F08040B8609C
:1006300038688007FCD5F86C00F0B9FB009A5B467F
:1006400000F030FADDE9013200F0C4FB00F082FB7B
:10065000039945180020294605280AD0B1FBF9F274
:1006600002EB8203A1EB430146F820100130114652
:10067000F2E78020FFF78AFE0020411D04D054F8E5
:10068000201009B90138F8E700F10408C0F1000AA8
:10069000B8F1FF3F0CDD56F828003030FFF78AFE36
:1006A000A8F10108F4E72020FFF784FEAAF1010A6F
:1006B000BAF1010FF7DAFFF707FF0A28B4D10E20CD
:1006C000FFF764FE284609B0BDE8F08F00BF00BF09
:1006D0000000000000FEAF400020014080B500F0A7
:1006E00059F8FFF7F1FE411E0529FAD8DE49886066
:1006F00080BD00BF86B0FFF7EDFD24484FF0AA4251
:10070000016841F00201016021490A60016841F07D
:1007100004010160FFF722FEFFF768FE00F0A6F972
:100720004FF47A70FFF744FFCF4C01ADFFF7D6FFCF
:100730004FF4FA7042F21071FFF75AFF2060012067
:100740004FF47A71FFF754FF606000F0E1F80A207F
:10075000FFF72EFFA068002601902068C0B202902B
:100760002068C0F3072003906068C0B204906068FE
:10077000C0F307200590052E05D055F82600FFF799
:1007800099FE0136F7E7FFF78FFECFE730380240DA
:100790000004024010B50120FFF7F8FDC04C5320C3
:1007A000A0474920A0474E20A0472020A047202056
:1007B000A0472020A0472020A0472020A04720209D
:1007C000A0473120A0472020A0475320A047512018
:1007D000A0475520A0474120A0475220A0474520D0
:1007E000A0472020A0473220A0472020A047542027
:1007F000A0475220A0474920A0474120A0474E20B3
:10080000A0474720A0474C20A0474520A0472020D4
:10081000A0473320A0472020A047C020FFF7B6FD07
:100820004120A0474220A0475320A0472820A047AE
:100830005320A0474920A0474E20A0472920A04789
:100840002020A0473420A0472020A0475320A047C5
:100850005420A0474520A0475020A0472020A04773
:100860002020A0472020A0473520A0472020A047D7
:100870005320A0474120A0475720A0475420A0471D
:100880004F20A0474F20A0475420A0474820A04712
:100890002020A04736202146BDE81040084700BF71
:1008A00070B586B000210A2201AB044605290AD0A2
:1008B000B4FBF2F505EB8506A4EB460443F82140B2
:1008C00001312C46F2E742F21071884204D30598B8
:1008D0003030FFF76FFD02E0B0F57A7F12D3049855
:1008E0003030FFF767FD03983030FFF763FD029863
:1008F0003030FFF75FFD0198303006B0BDE8704042
:10090000FFF758BD6428EED20A28F0D2F3E70000C2
:100910002DE9F84F0120FFF739FD534DA868012854
:1009200006D14FF0310B4FF04E08492653275CE0BB
:10093000A86802280BD14FF0320B4FF04508522621
:10094000412755244FF051094FF0530A44E0A8685D
:1009500003280ED152204FF0330B4FF045084C26A0
:1009600047274E244FF041094FF0490A0090542088
:100970002DE0A86804280ED142204FF0340B4FF030
:1009800029084E2649274FF028094FF0530A5324CF
:10099000009041201BE0A868052807D14FF0350BD7
:1009A0004FF050084526542753241BE0A86806281A
:1009B00026D141204FF0360B4FF048084F244FF01E
:1009C00054094FF0570A4F27542600905320FFF741
:1009D000F1FC0098FFF7EEFC5046FFF7EBFC4846B1
:1009E000FFF7E8FC2046FFF7E5FC2D4C3846A04712
:1009F0003046A0474046A0472020A0475846A04781
:100A0000C020FFF7C3FC264C4420A0475520A04738
:100A10005220A0474120A0475420A0474920A0478A
:100A20004F20A0474E20A0472020A0472868FFF76E
:100A300037FF2020A0474620A0475220A04745204E
:100A4000A0475120A0475520A0474520A0474E2051
:100A5000A0474320A0475920A0472020A04768680E
:100A6000BDE8F84FFFF71CBF6000002010B5012063
:100A7000FFF78CFC0A4C3920A0473620A0473220D3
:100A8000A0473420A0473320A0473020A047312082
:100A9000A0473220A0476420BDE81040FFF788BD82
:100AA000B50300082DE9C04130B4DFF8A0C23CEA2C
:100AB000111418BF3CEA131400F0EC801CEA111466
:100AC00081EA030544EAD57418BF1CEA131500F047
:100AD000C780A4EB050404F17F7404F500344FF0E3
:100AE000004545EAC12145EAC32341EA505143EAA2
:100AF00052534FEAC0204FEAC222994208BF9042A7
:100B000000F09C804FEA13650FF24016765D4FEAC5
:100B1000134506FB05F7C7F1807706FB07F74FEA99
:100B2000D737A7FB03687642A7FB06CEC8F5803807
:100B300038BFA8F1010807FB08E6A6FB028C4FF0BE
:100B4000000EE6FB03CEDCF1000CCEF1004E38BF08
:100B5000AEF1010EA6FB0C584FF00007E6FB0E8726
:100B6000A1FB08C6A0FB07CE16EB0E064FF0000552
:100B700045F10005E1FB076515F1E04E7EBFA4F5E8
:100B800080345FEA46066D4116F1800745F10005A5
:100B90004FEA172747EA05674FEA15254FEA066629
:100BA000A6F1DE46B6F1805F1FD9384605EBC47169
:100BB00024F0010C01EB0C11BCF1FE6F02D8F0BC6B
:100BC000BDE8008124425CBF01F5801E9EEAC47F1F
:100BD00002D4F0BCBDE80081244238D4A1F1C04168
:100BE000F0BCBDE8004100F0EDB94FEAD02040EA8A
:100BF00041504FEAD1214FEAD22242EA43524FEA12
:100C0000D323A7FB028607FB036605FB02661EEAE9
:100C10000E0F58BFA6EB0056B6EB00564FEA520E29
:100C20004EEAC37E18EB0E0E56EB530EBDD518EBF5
:100C300002085E417F1C55F10005B6E74FF48015B0
:100C40004FF000074FF000064FF00008ADE701F14C
:100C5000C04101F000414FF00000F0BCBDE8008150
:100C60000CEA131511EA0C1F00D00CE013EA0C1F5C
:100C700000F025804FF0000081EA030101F00041FF
:100C8000F0BCBDE80081F0BCBDE8004181EA030191
:100C900000F098B9F0BCBDE8004170B500F044F92F
:100CA000097EFC3E00F007B84FF0000081EA030126
:100CB00001F00041704781EA030100F083B9F0BC04
:100CC000BDE8004122494FF000007047FFFDFBF9ED
:100CD000F7F5F4F2F0EEEDEBE9E8E6E4E3E1E0DE6F
:100CE000DDDBDAD8D7D5D4D3D1D0CFCDCCCBCAC8E1
:100CF000C7C6C5C4C2C1C0BFBEBDBCBBBAB9B8B708
:100D0000B6B5B4B3B2B1B0AFAEADACABAAA9A8A8FA
:100D1000A7A6A5A4A3A3A2A1A09F9F9E9D9C9C9BC8
:100D20009A99999897979695959493939291919073
:100D30008F8F8E8E8D8C8C8B8B8A89898888878704
:100D40008685858484838382828181800000FF0779
:100D50000000F87F4FEA1153A3F58063D3F11E031F
:100D6000A8BFD3F1200C08DB4FF0004242EAC122B9
:100D700052EA505232FA03F0704709420BD4102B5A
:100D8000C4BF0020704703F5787CBCF1FF3F05D05D
:100D90004FF0FF3070474FF00000704770B500F023
:100DA000C3F800BF4992248000207047F0E7B0FAF2
:100DB00080F310FA03F10AD0C3F11D0303F5806339
:100DC0004FEA03524FEA415002EBD12170474FF0F6
:100DD0000000704770B5DFF848C11CEA111E1EBF45
:100DE0001CEA13159EEA0C0F95EA0C0F00F06F80B9
:100DF00081EA03044EEAD47EAE4421EA4C1123EA90
:100E00004C1341F4801143F48013AEF17F7EA1FBBB
:100E1000024CA0FB0365361955EB0C05A1FB034CF6
:100E20004CF10003A0FB021C16EB0C06654153F1CC
:100E30000003094218BF46F0010613F4007F0BD1EE
:100E40004FEA03314FEA053041EA155140EA1650A6
:100E500034036FF003020AE04FEAC3214FEAC520D2
:100E600041EA555140EA5650F4026FF0020202EB9B
:100E70002E4201EB025585EACE710AD05FEA440C9E
:100E800018BF24F0004450F1000041F1000120EAB5
:100E9000D47040F2FE7C624500D270BDA84214BFFF
:100EA0004FF080444FF04044002E08BF0024BEF1B4
:100EB000806FA8BFA1F1C041BDE8704080F2828080
:100EC00001F1C04101F000414FF0000070470CEA11
:100ED00013159EEA0C0F18BF95EA0C0F06D081EA95
:100EE000030E4FF000000EF0004170BD00F01CF842
:100EF0008900013E00F007B800F009B84FEA430C42
:100F00005FEA5C5C08D081EA030100F05BB84FEA5D
:100F1000410C5FEA5C5CF6D102494FF0000070477B
:100F20000000FF070000F87F0EF1020E2EF0030E06
:100F30005EF8046B364205D4012A43EB030515F530
:100F4000001F12D8012841EB010C1CF5001F0CD822
:100F50000ED14FEAD17C0CEB4C0C0CF1020C15F5C8
:100F6000001F08BF4CEBD37C04E04FF0080C01E0FD
:100F70004FEAD37C0CEB4C0526FA05F606F0070683
:100F8000B6F1040C06D20EEB860CBDE870404CF0B6
:100F9000010C6047DFE80CF0090B02024FF0004142
:100FA000A1F500214FF0000070BD19461046012840
:100FB00051EB010418BFD4F5001484BF002001F0E8
:100FC000004170BD0808A0F500114FEA31017047DB
:100FD000F1EE100A4FF6FF71C0F2C03120EA0100B5
:100FE00040F04070E1EE100A70470000FC0F00086E
:0C0FF0000000002070060000D001000886
:040000050800019559
:00000001FF
