:020000040800F2
:1000000060060020190200082102000823020008EF
:10001000250200082702000829020008000000004D
:100020000000000000000000000000002B0200089B
:100030002D020008000000002F0200083102000815
:1000400033020008330200083302000833020008BC
:1000500033020008330200083302000833020008AC
:10006000330200083302000833020008330200089C
:10007000330200083302000833020008330200088C
:1000800033020008330200083302000800000000B9
:100090000000000000000000000000003302000823
:1000A000330200083302000833020008330200085C
:1000B000330200083302000833020008330200084C
:1000C000330200083302000833020008330200083C
:1000D0003302000833020008330200080000000069
:1000E0003302000833020008330200080000000059
:1000F00000000000000000000000000033020008C3
:100100000000000033020008330200083302000838
:1001100000000000000000000000000000000000DF
:1001200033020008330200083302000833020008DB
:100130003302000800000000000000000000000082
:100140000000000000000000000000003302000872
:1001500033020008330200083302000833020008AB
:100160003302000833020008000000000000000015
:10017000000000000000000000000000000000007F
:100180000000000033020008000000000000000032
:100190003302000800F002F800F02EF80AA090E800
:1001A000000C82448344AAF10107DA4501D100F032
:1001B00023F8AFF2090EBAE80F0013F0010F18BFD1
:1001C000FB1A43F0010318471C1000002C1000001C
:1001D0000023002400250026103A28BF78C1FBD850
:1001E000520728BF30C148BF0B6070471FB500F0F1
:1001F0005BFE1FBD10B510BD00F031F81146FFF7D2
:10020000F5FF00F0A1F900F04FF803B4FFF7F2FF9B
:1002100003BC00F057F80000094880470948004730
:10022000FEE7FEE7FEE7FEE7FEE7FEE7FEE7FEE7A6
:10023000FEE7FEE704480549054A064B7047000003
:10024000610400089501000860000020600600209D
:1002500060020020600200207047704770477546BA
:1002600000F02CF8AE4605006946534620F0070022
:10027000854618B020B5FFF7DDFFBDE820404FF000
:1002800000064FF000074FF000084FF0000BAC469F
:10029000ACE8C009ACE8C009ACE8C009ACE8C009EA
:1002A00021F007018D46704710B50446AFF300807A
:1002B0002046BDE81040FFF7A8BF00000048704787
:1002C0000000002001491820ABBEFEE72600020016
:1002D0007047000017494FF05532086840F00100A0
:1002E0000860154802600A6942F400320A61016A36
:1002F00021F47F410162016A41F4E0610162016A17
:1003000041F4E0410162016821F0F00101600168FF
:1003100041F0A0010160094840F2836140F8041CEB
:100320000C210160002141608160016841F40051AD
:100330000160704730380240000002400C44004029
:100340001148016841F0010101604FF080410A68E5
:1003500042F008020A600A6842F080020A600B4913
:1003600043F67F620A60016841F008010160744849
:10037000016841F008010160016841F080010160FD
:100380009F218162704700BF403802402800004032
:10039000B0B5044600F03EF8144D2C60286840F4D7
:1003A00080602860012000F091F8286840F6FF3155
:1003B00008402860B0BD00BF10B5044600F02AF820
:1003C00044F40070094C2060206840F48060206094
:1003D000012000F07BF8206840F6FF3108402060E3
:1003E0000120BDE8104000F071B800BF14080240C1
:1003F00010B519484FF05531054C01603820A04721
:100400000120A0470E202146BDE81040084700BF4C
:1004100091030008BCB5104C104840F6FF35206031
:100420004FF480706061606940F480606061012019
:1004300000F04CF82069019060692840606101205B
:1004400000F044F801980006EDD4002060614FF000
:1004500055302060BCBD00BF00080240000055556B
:1004600010B50E480F4CD0F8801041F47001C0F860
:1004700080100B490A6842F001020A6000228A607B
:100480000B6823400B60084B4B600B6823F4802300
:100490000B60CA604FF00061016010BD08ED00E024
:1004A00000380240FFFFF6FE1030002406480168C5
:1004B0008906FCD54068704703490A681206FCD5D6
:1004C000C0B24860704700BF0044004081B0009057
:1004D0000098B8B10C480099C161002141614FF00A
:1004E00080410A6842F001020A600168C907FCD035
:1004F000016821F0010101604FF08040016821F0A6
:100500000101016001B070471000004081B000900F
:10051000009898B10A480099C162002141620168BF
:1005200041F0010101600169C907FCD0016921F0B6
:1005300001010161016821F00101016001B0704712
:10054000000C0040000000008EB0FFF7C3FE88489A
:100550004FF05532016841F00201016085490A609F
:10056000016841F004010160FFF7EAFEFFF740FF78
:1005700081489FED7B0B4FF6FF7841F6991A4FF6B5
:10058000FE79006851EC100B9FED770BCDE903105D
:1005900051EC100BCDE9011009AD0024052C05D05C
:1005A000FFF784FF45F824000134F7E70D98DDE9F3
:1005B0000B23DDE909B103EB002501EB02215846CD
:1005C0002A46059100F02EF9284600F05CFB024611
:1005D0000B46DDE9031000F0D1F9DDE901320546F3
:1005E0000E4600F063FB07460C462846314600F0F5
:1005F0001DFB05463846214600F018FB0646ABF1C8
:100600000100052800F29180DFE800F003172B437A
:100610005F7C00260598864280F08780594F002431
:10062000642C08D057F8240000F0AEF82846FFF7F5
:100630006DFF0134F4E72E44ECE7750000270598C0
:10064000874272D2002000F09FF83046FFF73EFF4D
:100650004FF6FF7000F098F83046FFF737FF2F4451
:10066000EDE7B8FBF6F64FF0000B059883455CD23A
:10067000424F0024BC420AD22046444528BF381AC3
:1006800000F082F80120FFF721FF3444F2E7AB4489
:10069000EBE73B4E0024089406950898059988429C
:1006A00043D20794079863280BD8079856F8200080
:1006B00000F06AF80698FFF729FF079801300790C5
:1006C000F0E7089828440890E7E714204FF0000B63
:1006D000B5FBF0F60598834527D228480027044645
:1006E00087420DD22046474538BF384600F04CF8C7
:1006F0003046FFF7EBFE2148A4EB0A045744EFE72E
:10070000AB44E7E70027059887420ED200264E4506
:1007100009D8304600F038F80120FFF7D7FEB8FBC3
:10072000F5F00644F3E72F44EDE7002000F02CF845
:100730000120FFF72DFE904C4620A0474920A047FE
:100740004E20A0474920A0475320A0474820A0475B
:100750004520A0474420A0470120FFF7ADFE1BE73E
:100760000000000000408F40000000000000E03F5B
:10077000303802400004024004440040FEFF010003
:1007800054100008C40E000808490A6822F4807258
:100790000A60C0F3072200020A60054A80B288504E
:1007A000086840F480700860704700BF140402407D
:1007B00000FCFFFF70B586B000210A2201AB0446A1
:1007C00005290AD0B4FBF2F505EB8506A4EB460437
:1007D00043F8214001312C46F2E742F21071884281
:1007E00004D305983030FFF7E7FD02E0B0F57A7FDB
:1007F00012D304983030FFF7DFFD03983030FFF755
:10080000DBFD02983030FFF7D7FD0198303006B09D
:10081000BDE87040FFF7D0BD6428EED20A28F0D2C0
:10082000F3E700002DE9F04F87B00446012015469C
:100830000E46FFF7ADFD611E052968D85020CDE9B1
:1008400003654FF035094FF0330C54274FF0320851
:1008500045234FF0410E4FF0550A4FF0510B312612
:100860004E24492505904C200290472001905220AB
:1008700006905320DFE801F03F2F200339124E206D
:100880004FF0340C29234FF0280E532541275324D1
:10089000029049200190422006900DE041204FF047
:1008A000360C48234F244FF0540E572553270690FB
:1008B0004F2001905420029038461E46E046F346F1
:1008C000FFF77AFD0698FFF777FDDDE901E1334692
:1008D0002846A246069105937746FFF76DFD5846D8
:1008E000FFF76AFD069B5046C1461D46FFF764FDB3
:1008F000059C38464E46204FB8472846B847204604
:10090000B8472020B8473046B847DDE90365C02026
:10091000FFF73EFD184C4420A0475520A047522029
:10092000A0474120A0475420A0474920A0474F207E
:10093000A0474E20A0472020A0473046FFF73AFFAF
:100940002020A0474620A0475220A0474520A0478E
:100950005120A0475520A0474520A0474E20A04742
:100960004320A0475920A0472020A047284607B091
:10097000BDE8F04FFFF71EBFB90300082DE9C041E5
:1009800030B4DFF8A0C23CEA111418BF3CEA1314DB
:1009900000F0EC801CEA111481EA030544EAD574E6
:1009A00018BF1CEA131500F0C780A4EB050404F17E
:1009B0007F7404F500344FF0004545EAC12145EA53
:1009C000C32341EA505143EA52534FEAC0204FEA51
:1009D000C222994208BF904200F09C804FEA136502
:1009E0000FF24016765D4FEA134506FB05F7C7F197
:1009F000807706FB07F74FEAD737A7FB03687642F5
:100A0000A7FB06CEC8F5803838BFA8F1010807FB60
:100A100008E6A6FB028C4FF0000EE6FB03CEDCF1ED
:100A2000000CCEF1004E38BFAEF1010EA6FB0C5803
:100A30004FF00007E6FB0E87A1FB08C6A0FB07CE20
:100A400016EB0E064FF0000545F10005E1FB0765CA
:100A500015F1E04E7EBFA4F580345FEA46066D4195
:100A600016F1800745F100054FEA172747EA0567A9
:100A70004FEA15254FEA0666A6F1DE46B6F1805F1D
:100A80001FD9384605EBC47124F0010C01EB0C11A1
:100A9000BCF1FE6F02D8F0BCBDE8008124425CBF0F
:100AA00001F5801E9EEAC47F02D4F0BCBDE800813F
:100AB000244238D4A1F1C041F0BCBDE8004100F0AF
:100AC000EDB94FEAD02040EA41504FEAD1214FEA38
:100AD000D22242EA43524FEAD323A7FB028607FB06
:100AE000036605FB02661EEA0E0F58BFA6EB005612
:100AF000B6EB00564FEA520E4EEAC37E18EB0E0ECE
:100B000056EB530EBDD518EB02085E417F1C55F124
:100B10000005B6E74FF480154FF000074FF00006D0
:100B20004FF00008ADE701F1C04101F000414FF086
:100B30000000F0BCBDE800810CEA131511EA0C1F9F
:100B400000D00CE013EA0C1F00F025804FF00000ED
:100B500081EA030101F00041F0BCBDE80081F0BC76
:100B6000BDE8004181EA030100F098B9F0BCBDE89E
:100B7000004170B500F044F9097EFC3E00F007B872
:100B80004FF0000081EA030101F00041704781EA63
:100B9000030100F083B9F0BCBDE8004122494FF0E9
:100BA00000007047FFFDFBF9F7F5F4F2F0EEEDEB16
:100BB000E9E8E6E4E3E1E0DEDDDBDAD8D7D5D4D35B
:100BC000D1D0CFCDCCCBCAC8C7C6C5C4C2C1C0BFA7
:100BD000BEBDBCBBBAB9B8B7B6B5B4B3B2B1B0AFAD
:100BE000AEADACABAAA9A8A8A7A6A5A4A3A3A2A191
:100BF000A09F9F9E9D9C9C9B9A999998979796954C
:100C000095949393929191908F8F8E8E8D8C8C8BE7
:100C10008B8A89898888878786858584848383826F
:100C2000828181800000FF070000F87F4FEA1153A6
:100C3000A3F58063D3F11E03A8BFD3F1200C08DB1A
:100C40004FF0004242EAC12252EA505232FA03F017
:100C5000704709420BD4102BC4BF0020704703F526
:100C6000787CBCF1FF3F05D04FF0FF3070474FF06C
:100C70000000704770B500F0C3F800BF49922480AF
:100C800000207047F0E7B0FA80F310FA03F10AD0C1
:100C9000C3F11D0303F580634FEA03524FEA41504D
:100CA00002EBD12170474FF00000704770B5DFF8BC
:100CB00048C11CEA111E1EBF1CEA13159EEA0C0F48
:100CC00095EA0C0F00F06F8081EA03044EEAD47EAF
:100CD000AE4421EA4C1123EA4C1341F4801143F451
:100CE0008013AEF17F7EA1FB024CA0FB0365361999
:100CF00055EB0C05A1FB034C4CF10003A0FB021CBF
:100D000016EB0C06654153F10003094218BF46F08B
:100D1000010613F4007F0BD14FEA03314FEA05308F
:100D200041EA155140EA165034036FF003020AE01D
:100D30004FEAC3214FEAC52041EA555140EA5650D7
:100D4000F4026FF0020202EB2E4201EB025585EA3B
:100D5000CE710AD05FEA440C18BF24F0004450F171
:100D6000000041F1000120EAD47040F2FE7C6245AF
:100D700000D270BDA84214BF4FF080444FF04044F1
:100D8000002E08BF0024BEF1806FA8BFA1F1C041B2
:100D9000BDE8704080F2828001F1C04101F0004165
:100DA0004FF0000070470CEA13159EEA0C0F18BFB5
:100DB00095EA0C0F06D081EA030E4FF000000EF00A
:100DC000004170BD00F01CF88900013E00F007B83A
:100DD00000F009B84FEA430C5FEA5C5C08D081EA96
:100DE000030100F05BB84FEA410C5FEA5C5CF6D1AE
:100DF00002494FF0000070470000FF070000F87F35
:100E00000EF1020E2EF0030E5EF8046B364205D48E
:100E1000012A43EB030515F5001F12D8012841EB09
:100E2000010C1CF5001F0CD80ED14FEAD17C0CEB45
:100E30004C0C0CF1020C15F5001F08BF4CEBD37CD9
:100E400004E04FF0080C01E04FEAD37C0CEB4C05BA
:100E500026FA05F606F00706B6F1040C06D20EEBEC
:100E6000860CBDE870404CF0010C6047DFE80CF0E8
:100E7000090B02024FF00041A1F500214FF00000E4
:100E800070BD19461046012851EB010418BFD4F576
:100E9000001484BF002001F0004170BD0808A0F5D7
:100EA00000114FEA31017047F1EE100A4FF6FF7161
:100EB000C0F2C03120EA010040F04070E1EE100ABB
:100EC00070470000FF7F0000088800000A900000C3
:100ED000FB970000D49F00008DA700001EAF00000C
:100EE0007FB60000A9BD000095C400003BCB000008
:100EF00096D100009ED700004DDD00009FE200006B
:100F00008CE7000012EC000029F00000D0F3000094
:100F100001F70000BBF90000F9FB0000BAFD00007A
:100F2000FCFE0000BEFF0000FFFF0000BEFF00004F
:100F3000FCFE0000BAFD0000F9FB0000BBF9000058
:100F400001F70000D0F3000029F0000012EC0000CF
:100F50008CE700009FE200004DDD00009ED70000FE
:100F600096D100003BCB000095C40000A9BD000055
:100F70007FB600001EAF00008DA70000D49F0000C8
:100F8000FB9700000A90000008880000FF7F000027
:100F9000F6770000F46F0000036800002A6000008C
:100FA00071580000E05000007F49000055420000E9
:100FB000693B0000C3340000682E00006028000078
:100FC000B12200005F1D000072180000EC13000049
:100FD000D50F00002E0C0000FD08000043060000A5
:100FE000050400004402000002010000400000006F
:100FF0000000000040000000020100004402000068
:101000000504000043060000FD0800002E0C00004F
:10101000D50F0000EC130000721800005F1D0000E7
:10102000B122000060280000682E0000C3340000D8
:10103000693B0000554200007F490000E05000007D
:10104000715800002A60000003680000F46F00007F
:10105000F6770000000000000A08000012100000EF
:1010600017180000152000000B280000F82F0000C2
:10107000D8370000A93F00006B4700001B4F00005D
:10108000B75600003D5E0000AB650000FF6C00003D
:1010900038740000537B0000508200002B89000050
:1010A000E48F000078960000E69C00002DA300006D
:1010B0004BA900003DAF000004B500009CBA000041
:1010C00006C000003FC5000046CA00001ACF00005D
:1010D000BAD3000025D8000058DC000054E000001E
:1010E00018E40000A1E70000F1EA000004EE0000AF
:1010F000DCF0000077F30000D4F50000F4F7000006
:10110000D4F9000076FB0000D8FC0000FAFD0000D6
:10111000DCFE00007DFF0000DEFF0000FFFF00009E
:10112000DEFF00007DFF0000DCFE0000FAFD000095
:10113000D8FC000076FB0000D4F90000F4F70000B2
:10114000D4F5000077F30000DCF0000004EE0000AE
:10115000F1EA0000A1E7000018E4000054E00000FC
:1011600058DC000025D80000BAD300001ACF0000D8
:1011700046CA00003FC5000006C000009CBA00003F
:1011800004B500003DAF00004BA900002DA30000F6
:10119000E69C000078960000E48F00002B89000098
:1011A00050820000537B000038740000FF6C000088
:1011B000AB6500003D5E0000B75600001B4F00000D
:1011C0006B470000A93F0000D8370000F82F00004F
:1011D0000B28000015200000171800001210000056
:1011E0000A080000F411000800000020600600005A
:0411F000D001000822
:040000050800019559
:00000001FF
